{
  "_format": "hh-sol-artifact-1",
  "contractName": "Letter",
  "sourceName": "contracts/Letter.sol",
  "abi": [
    {
      "inputs": [],
      "stateMutability": "nonpayable",
      "type": "constructor"
    },
    {
      "anonymous": false,
      "inputs": [
        {
          "indexed": false,
          "internalType": "address",
          "name": "sender",
          "type": "address"
        },
        {
          "indexed": false,
          "internalType": "string",
          "name": "content",
          "type": "string"
        },
        {
          "indexed": false,
          "internalType": "uint256",
          "name": "time",
          "type": "uint256"
        }
      ],
      "name": "Sent",
      "type": "event"
    },
    {
      "inputs": [
        {
          "internalType": "string",
          "name": "_content",
          "type": "string"
        }
      ],
      "name": "create",
      "outputs": [],
      "stateMutability": "nonpayable",
      "type": "function"
    },
    {
      "inputs": [],
      "name": "getMessage",
      "outputs": [
        {
          "components": [
            {
              "internalType": "address",
              "name": "sender",
              "type": "address"
            },
            {
              "internalType": "string",
              "name": "content",
              "type": "string"
            }
          ],
          "internalType": "struct Letter.Message[]",
          "name": "",
          "type": "tuple[]"
        }
      ],
      "stateMutability": "view",
      "type": "function"
    },
    {
      "inputs": [
        {
          "internalType": "uint256",
          "name": "",
          "type": "uint256"
        }
      ],
      "name": "messages",
      "outputs": [
        {
          "internalType": "address",
          "name": "sender",
          "type": "address"
        },
        {
          "internalType": "string",
          "name": "content",
          "type": "string"
        }
      ],
      "stateMutability": "view",
      "type": "function"
    },
    {
      "inputs": [],
      "name": "owner",
      "outputs": [
        {
          "internalType": "address",
          "name": "",
          "type": "address"
        }
      ],
      "stateMutability": "view",
      "type": "function"
    }
  ],
  "bytecode": "0x608060405234801561001057600080fd5b5061002b6751c06fc1ccc6d81960c01b61008a60201b60201c565b61004567b448a5efd8d6e0a260c01b61008a60201b60201c565b336000806101000a81548173ffffffffffffffffffffffffffffffffffffffff021916908373ffffffffffffffffffffffffffffffffffffffff16021790555061008d565b50565b610b7f8061009c6000396000f3fe608060405234801561001057600080fd5b506004361061004c5760003560e01c80630d80fefd146100515780638da5cb5b14610082578063b6a46b3b146100a0578063ce6d41de146100bc575b600080fd5b61006b600480360381019061006691906106b3565b6100da565b60405161007992919061089c565b60405180910390f35b61008a6101b6565b6040516100979190610881565b60405180910390f35b6100ba60048036038101906100b59190610672565b6101da565b005b6100c46103cc565b6040516100d1919061090a565b60405180910390f35b600181815481106100ea57600080fd5b90600052602060002090600202016000915090508060000160009054906101000a900473ffffffffffffffffffffffffffffffffffffffff169080600101805461013390610a91565b80601f016020809104026020016040519081016040528092919081815260200182805461015f90610a91565b80156101ac5780601f10610181576101008083540402835291602001916101ac565b820191906000526020600020905b81548152906001019060200180831161018f57829003601f168201915b5050505050905082565b60008054906101000a900473ffffffffffffffffffffffffffffffffffffffff1681565b6101ee67e8f41481fe47db1160c01b61054f565b6102026778276bcf54f5629960c01b61054f565b61021667f88fddb1941f496960c01b61054f565b61022a67509449e7233a078e60c01b61054f565b600081511161026e576040517f08c379a00000000000000000000000000000000000000000000000000000000081526004016102659061092c565b60405180910390fd5b610282675bbfdf23c6e48d3960c01b61054f565b610296679b22246623d8ba1e60c01b61054f565b6102aa67b589ecac9d8bacdd60c01b61054f565b600160405180604001604052803373ffffffffffffffffffffffffffffffffffffffff16815260200183815250908060018154018082558091505060019003906000526020600020906002020160009091909190915060008201518160000160006101000a81548173ffffffffffffffffffffffffffffffffffffffff021916908373ffffffffffffffffffffffffffffffffffffffff1602179055506020820151816001019080519060200190610363929190610552565b50505061037a67f36e5f74879060aa60c01b61054f565b61038e67fa5c7868d56989de60c01b61054f565b7f830356ada8321580c6f541ce7c3a20082b08c0da7a7db63078833693913fdaf13382426040516103c1939291906108cc565b60405180910390a150565b60606103e26701ee438f9fa869dc60c01b61054f565b6103f667a6a6af4aec0e94e860c01b61054f565b61040a672616e9838c73bc8b60c01b61054f565b6001805480602002602001604051908101604052809291908181526020016000905b8282101561054657838290600052602060002090600202016040518060400160405290816000820160009054906101000a900473ffffffffffffffffffffffffffffffffffffffff1673ffffffffffffffffffffffffffffffffffffffff1673ffffffffffffffffffffffffffffffffffffffff1681526020016001820180546104b590610a91565b80601f01602080910402602001604051908101604052809291908181526020018280546104e190610a91565b801561052e5780601f106105035761010080835404028352916020019161052e565b820191906000526020600020905b81548152906001019060200180831161051157829003601f168201915b5050505050815250508152602001906001019061042c565b50505050905090565b50565b82805461055e90610a91565b90600052602060002090601f01602090048101928261058057600085556105c7565b82601f1061059957805160ff19168380011785556105c7565b828001600101855582156105c7579182015b828111156105c65782518255916020019190600101906105ab565b5b5090506105d491906105d8565b5090565b5b808211156105f15760008160009055506001016105d9565b5090565b60006106086106038461097d565b61094c565b90508281526020810184848401111561062057600080fd5b61062b848285610a4f565b509392505050565b600082601f83011261064457600080fd5b81356106548482602086016105f5565b91505092915050565b60008135905061066c81610b32565b92915050565b60006020828403121561068457600080fd5b600082013567ffffffffffffffff81111561069e57600080fd5b6106aa84828501610633565b91505092915050565b6000602082840312156106c557600080fd5b60006106d38482850161065d565b91505092915050565b60006106e88383610835565b905092915050565b6106f981610a13565b82525050565b61070881610a13565b82525050565b6000610719826109bd565b61072381856109e0565b935083602082028501610735856109ad565b8060005b85811015610771578484038952815161075285826106dc565b945061075d836109d3565b925060208a01995050600181019050610739565b50829750879550505050505092915050565b600061078e826109c8565b61079881856109f1565b93506107a8818560208601610a5e565b6107b181610b21565b840191505092915050565b60006107c7826109c8565b6107d18185610a02565b93506107e1818560208601610a5e565b6107ea81610b21565b840191505092915050565b6000610802601983610a02565b91507f596f7520646964206e6f7420656e74657220636f6e74656e74000000000000006000830152602082019050919050565b600060408301600083015161084d60008601826106f0565b50602083015184820360208601526108658282610783565b9150508091505092915050565b61087b81610a45565b82525050565b600060208201905061089660008301846106ff565b92915050565b60006040820190506108b160008301856106ff565b81810360208301526108c381846107bc565b90509392505050565b60006060820190506108e160008301866106ff565b81810360208301526108f381856107bc565b90506109026040830184610872565b949350505050565b60006020820190508181036000830152610924818461070e565b905092915050565b60006020820190508181036000830152610945816107f5565b9050919050565b6000604051905081810181811067ffffffffffffffff8211171561097357610972610af2565b5b8060405250919050565b600067ffffffffffffffff82111561099857610997610af2565b5b601f19601f8301169050602081019050919050565b6000819050602082019050919050565b600081519050919050565b600081519050919050565b6000602082019050919050565b600082825260208201905092915050565b600082825260208201905092915050565b600082825260208201905092915050565b6000610a1e82610a25565b9050919050565b600073ffffffffffffffffffffffffffffffffffffffff82169050919050565b6000819050919050565b82818337600083830152505050565b60005b83811015610a7c578082015181840152602081019050610a61565b83811115610a8b576000848401525b50505050565b60006002820490506001821680610aa957607f821691505b60208210811415610abd57610abc610ac3565b5b50919050565b7f4e487b7100000000000000000000000000000000000000000000000000000000600052602260045260246000fd5b7f4e487b7100000000000000000000000000000000000000000000000000000000600052604160045260246000fd5b6000601f19601f8301169050919050565b610b3b81610a45565b8114610b4657600080fd5b5056fea2646970667358221220fab11a93f13ed66cc4fbe3b9e524b04eafd9003fa949492f6a77eaa49657f08d64736f6c63430008000033",
  "linkReferences": {},
  "deployedLinkReferences": {}
}